{
  "contractName": "Decentragram",
  "abi": [
    {
      "anonymous": false,
      "inputs": [
        {
          "indexed": false,
          "internalType": "uint256",
          "name": "fileId",
          "type": "uint256"
        },
        {
          "indexed": false,
          "internalType": "string",
          "name": "filehash",
          "type": "string"
        },
        {
          "indexed": false,
          "internalType": "uint256",
          "name": "fileSize",
          "type": "uint256"
        },
        {
          "indexed": false,
          "internalType": "string",
          "name": "fileName",
          "type": "string"
        },
        {
          "indexed": false,
          "internalType": "string",
          "name": "fileType",
          "type": "string"
        },
        {
          "indexed": false,
          "internalType": "string",
          "name": "fileDescription",
          "type": "string"
        },
        {
          "indexed": false,
          "internalType": "uint256",
          "name": "uploadTime",
          "type": "uint256"
        },
        {
          "indexed": false,
          "internalType": "address payable",
          "name": "uploader",
          "type": "address"
        }
      ],
      "name": "FileUploaded",
      "type": "event"
    },
    {
      "anonymous": false,
      "inputs": [
        {
          "indexed": false,
          "internalType": "uint256",
          "name": "id",
          "type": "uint256"
        },
        {
          "indexed": false,
          "internalType": "string",
          "name": "hash",
          "type": "string"
        },
        {
          "indexed": false,
          "internalType": "string",
          "name": "description",
          "type": "string"
        },
        {
          "indexed": false,
          "internalType": "uint256",
          "name": "tipAmount",
          "type": "uint256"
        },
        {
          "indexed": false,
          "internalType": "address payable",
          "name": "author",
          "type": "address"
        }
      ],
      "name": "ImageCreate",
      "type": "event"
    },
    {
      "anonymous": false,
      "inputs": [
        {
          "indexed": false,
          "internalType": "uint256",
          "name": "id",
          "type": "uint256"
        },
        {
          "indexed": false,
          "internalType": "string",
          "name": "hash",
          "type": "string"
        },
        {
          "indexed": false,
          "internalType": "string",
          "name": "description",
          "type": "string"
        },
        {
          "indexed": false,
          "internalType": "uint256",
          "name": "tipAmount",
          "type": "uint256"
        },
        {
          "indexed": false,
          "internalType": "address payable",
          "name": "author",
          "type": "address"
        }
      ],
      "name": "ImageTipped",
      "type": "event"
    },
    {
      "anonymous": false,
      "inputs": [
        {
          "indexed": false,
          "internalType": "uint256",
          "name": "postId",
          "type": "uint256"
        },
        {
          "indexed": false,
          "internalType": "string",
          "name": "posthash",
          "type": "string"
        },
        {
          "indexed": false,
          "internalType": "uint256",
          "name": "postSize",
          "type": "uint256"
        },
        {
          "indexed": false,
          "internalType": "string",
          "name": "postName",
          "type": "string"
        },
        {
          "indexed": false,
          "internalType": "string",
          "name": "postType",
          "type": "string"
        },
        {
          "indexed": false,
          "internalType": "string",
          "name": "postDescription",
          "type": "string"
        },
        {
          "indexed": false,
          "internalType": "uint256",
          "name": "postuploadTime",
          "type": "uint256"
        },
        {
          "indexed": false,
          "internalType": "address payable",
          "name": "postuploader",
          "type": "address"
        }
      ],
      "name": "PostUploaded",
      "type": "event"
    },
    {
      "inputs": [],
      "name": "fileCount",
      "outputs": [
        {
          "internalType": "uint256",
          "name": "",
          "type": "uint256"
        }
      ],
      "stateMutability": "view",
      "type": "function",
      "constant": true
    },
    {
      "inputs": [
        {
          "internalType": "uint256",
          "name": "",
          "type": "uint256"
        }
      ],
      "name": "files",
      "outputs": [
        {
          "internalType": "uint256",
          "name": "fileId",
          "type": "uint256"
        },
        {
          "internalType": "string",
          "name": "filehash",
          "type": "string"
        },
        {
          "internalType": "uint256",
          "name": "fileSize",
          "type": "uint256"
        },
        {
          "internalType": "string",
          "name": "fileName",
          "type": "string"
        },
        {
          "internalType": "string",
          "name": "fileType",
          "type": "string"
        },
        {
          "internalType": "string",
          "name": "fileDescription",
          "type": "string"
        },
        {
          "internalType": "uint256",
          "name": "uploadTime",
          "type": "uint256"
        },
        {
          "internalType": "address payable",
          "name": "uploader",
          "type": "address"
        }
      ],
      "stateMutability": "view",
      "type": "function",
      "constant": true
    },
    {
      "inputs": [],
      "name": "imageCount",
      "outputs": [
        {
          "internalType": "uint256",
          "name": "",
          "type": "uint256"
        }
      ],
      "stateMutability": "view",
      "type": "function",
      "constant": true
    },
    {
      "inputs": [
        {
          "internalType": "uint256",
          "name": "",
          "type": "uint256"
        }
      ],
      "name": "images",
      "outputs": [
        {
          "internalType": "uint256",
          "name": "id",
          "type": "uint256"
        },
        {
          "internalType": "string",
          "name": "hash",
          "type": "string"
        },
        {
          "internalType": "string",
          "name": "description",
          "type": "string"
        },
        {
          "internalType": "uint256",
          "name": "tipAmount",
          "type": "uint256"
        },
        {
          "internalType": "address payable",
          "name": "author",
          "type": "address"
        }
      ],
      "stateMutability": "view",
      "type": "function",
      "constant": true
    },
    {
      "inputs": [],
      "name": "name",
      "outputs": [
        {
          "internalType": "string",
          "name": "",
          "type": "string"
        }
      ],
      "stateMutability": "view",
      "type": "function",
      "constant": true
    },
    {
      "inputs": [],
      "name": "postCount",
      "outputs": [
        {
          "internalType": "uint256",
          "name": "",
          "type": "uint256"
        }
      ],
      "stateMutability": "view",
      "type": "function",
      "constant": true
    },
    {
      "inputs": [
        {
          "internalType": "uint256",
          "name": "",
          "type": "uint256"
        }
      ],
      "name": "posts",
      "outputs": [
        {
          "internalType": "uint256",
          "name": "postId",
          "type": "uint256"
        },
        {
          "internalType": "string",
          "name": "posthash",
          "type": "string"
        },
        {
          "internalType": "uint256",
          "name": "postSize",
          "type": "uint256"
        },
        {
          "internalType": "string",
          "name": "postName",
          "type": "string"
        },
        {
          "internalType": "string",
          "name": "postType",
          "type": "string"
        },
        {
          "internalType": "string",
          "name": "postDescription",
          "type": "string"
        },
        {
          "internalType": "uint256",
          "name": "postuploadTime",
          "type": "uint256"
        },
        {
          "internalType": "address payable",
          "name": "postuploader",
          "type": "address"
        }
      ],
      "stateMutability": "view",
      "type": "function",
      "constant": true
    },
    {
      "inputs": [
        {
          "internalType": "string",
          "name": "_posthash",
          "type": "string"
        },
        {
          "internalType": "uint256",
          "name": "_postSize",
          "type": "uint256"
        },
        {
          "internalType": "string",
          "name": "_postName",
          "type": "string"
        },
        {
          "internalType": "string",
          "name": "_postType",
          "type": "string"
        },
        {
          "internalType": "string",
          "name": "_postDescription",
          "type": "string"
        }
      ],
      "name": "uploadPost",
      "outputs": [],
      "stateMutability": "nonpayable",
      "type": "function"
    },
    {
      "inputs": [
        {
          "internalType": "string",
          "name": "_filehash",
          "type": "string"
        },
        {
          "internalType": "uint256",
          "name": "_fileSize",
          "type": "uint256"
        },
        {
          "internalType": "string",
          "name": "_fileName",
          "type": "string"
        },
        {
          "internalType": "string",
          "name": "_fileType",
          "type": "string"
        },
        {
          "internalType": "string",
          "name": "_fileDescription",
          "type": "string"
        }
      ],
      "name": "uploadFile",
      "outputs": [],
      "stateMutability": "payable",
      "type": "function",
      "payable": true
    },
    {
      "inputs": [
        {
          "internalType": "string",
          "name": "_imgHash",
          "type": "string"
        },
        {
          "internalType": "string",
          "name": "_description",
          "type": "string"
        }
      ],
      "name": "uploadImage",
      "outputs": [],
      "stateMutability": "payable",
      "type": "function",
      "payable": true
    },
    {
      "inputs": [
        {
          "internalType": "uint256",
          "name": "_id",
          "type": "uint256"
        }
      ],
      "name": "tipImageOwner",
      "outputs": [],
      "stateMutability": "payable",
      "type": "function",
      "payable": true
    }
  ],
  "bytecode": "0x60806040526040518060400160405280600d81526020017f446563656e7472616772616d2000000000000000000000000000000000000000815250600090805190602001906200005192919062000075565b506000600155600060035560006005553480156200006e57600080fd5b5062000189565b828054620000839062000154565b90600052602060002090601f016020900481019282620000a75760008555620000f3565b82601f10620000c257805160ff1916838001178555620000f3565b82800160010185558215620000f3579182015b82811115620000f2578251825591602001919060010190620000d5565b5b50905062000102919062000106565b5090565b5b808211156200012157600081600090555060010162000107565b5090565b7f4e487b7100000000000000000000000000000000000000000000000000000000600052602260045260246000fd5b600060028204905060018216806200016d57607f821691505b60208210810362000183576200018262000125565b5b50919050565b611a4a80620001996000396000f3fe60806040526004361061009c5760003560e01c80638485648211610064578063848564821461018f5780638567ade8146101d057806392053b63146101ec578063a91b831414610217578063e82d9d3314610233578063f4c714b41461024f5761009c565b806306fdde03146100a15780630b1e7f83146100cc57806317906c2e14610110578063439535191461013b5780636ade39b914610166575b600080fd5b3480156100ad57600080fd5b506100b6610293565b6040516100c39190611400565b60405180910390f35b3480156100d857600080fd5b506100f360048036038101906100ee919061146c565b610321565b6040516101079897969594939291906114e9565b60405180910390f35b34801561011c57600080fd5b506101256105a9565b6040516101329190611583565b60405180910390f35b34801561014757600080fd5b506101506105af565b60405161015d9190611583565b60405180910390f35b34801561017257600080fd5b5061018d600480360381019061018891906116d3565b6105b5565b005b34801561019b57600080fd5b506101b660048036038101906101b1919061146c565b6107dc565b6040516101c79594939291906117be565b60405180910390f35b6101ea60048036038101906101e5919061146c565b610942565b005b3480156101f857600080fd5b50610201610c6f565b60405161020e9190611583565b60405180910390f35b610231600480360381019061022c919061181f565b610c75565b005b61024d600480360381019061024891906116d3565b610e15565b005b34801561025b57600080fd5b506102766004803603810190610271919061146c565b61103c565b60405161028a9897969594939291906114e9565b60405180910390f35b600080546102a0906118c6565b80601f01602080910402602001604051908101604052809291908181526020018280546102cc906118c6565b80156103195780601f106102ee57610100808354040283529160200191610319565b820191906000526020600020905b8154815290600101906020018083116102fc57829003601f168201915b505050505081565b600660205280600052604060002060009150905080600001549080600101805461034a906118c6565b80601f0160208091040260200160405190810160405280929190818152602001828054610376906118c6565b80156103c35780601f10610398576101008083540402835291602001916103c3565b820191906000526020600020905b8154815290600101906020018083116103a657829003601f168201915b5050505050908060020154908060030180546103de906118c6565b80601f016020809104026020016040519081016040528092919081815260200182805461040a906118c6565b80156104575780601f1061042c57610100808354040283529160200191610457565b820191906000526020600020905b81548152906001019060200180831161043a57829003601f168201915b50505050509080600401805461046c906118c6565b80601f0160208091040260200160405190810160405280929190818152602001828054610498906118c6565b80156104e55780601f106104ba576101008083540402835291602001916104e5565b820191906000526020600020905b8154815290600101906020018083116104c857829003601f168201915b5050505050908060050180546104fa906118c6565b80601f0160208091040260200160405190810160405280929190818152602001828054610526906118c6565b80156105735780601f1061054857610100808354040283529160200191610573565b820191906000526020600020905b81548152906001019060200180831161055657829003601f168201915b5050505050908060060154908060070160009054906101000a900473ffffffffffffffffffffffffffffffffffffffff16905088565b60055481565b60035481565b60008551116105c357600080fd5b600084116105d057600080fd5b60008351116105de57600080fd5b60008251116105ec57600080fd5b60008151116105fa57600080fd5b600073ffffffffffffffffffffffffffffffffffffffff163373ffffffffffffffffffffffffffffffffffffffff160361063357600080fd5b6005600081548092919061064690611926565b919050555060405180610100016040528060055481526020018681526020018581526020018481526020018381526020018281526020014281526020013373ffffffffffffffffffffffffffffffffffffffff168152506006600060055481526020019081526020016000206000820151816000015560208201518160010190805190602001906106d89291906112c4565b506040820151816002015560608201518160030190805190602001906106ff9291906112c4565b50608082015181600401908051906020019061071c9291906112c4565b5060a08201518160050190805190602001906107399291906112c4565b5060c0820151816006015560e08201518160070160006101000a81548173ffffffffffffffffffffffffffffffffffffffff021916908373ffffffffffffffffffffffffffffffffffffffff1602179055509050507f12ddc1e75077bb29be0c826a1f3d5864f4f38e8b0cf74b74c2eae1a0f6217a45600554868686868642336040516107cd9897969594939291906114e9565b60405180910390a15050505050565b6002602052806000526040600020600091509050806000015490806001018054610805906118c6565b80601f0160208091040260200160405190810160405280929190818152602001828054610831906118c6565b801561087e5780601f106108535761010080835404028352916020019161087e565b820191906000526020600020905b81548152906001019060200180831161086157829003601f168201915b505050505090806002018054610893906118c6565b80601f01602080910402602001604051908101604052809291908181526020018280546108bf906118c6565b801561090c5780601f106108e15761010080835404028352916020019161090c565b820191906000526020600020905b8154815290600101906020018083116108ef57829003601f168201915b5050505050908060030154908060040160009054906101000a900473ffffffffffffffffffffffffffffffffffffffff16905085565b60008111801561095457506001548111155b61095d57600080fd5b6000600260008381526020019081526020016000206040518060a001604052908160008201548152602001600182018054610997906118c6565b80601f01602080910402602001604051908101604052809291908181526020018280546109c3906118c6565b8015610a105780601f106109e557610100808354040283529160200191610a10565b820191906000526020600020905b8154815290600101906020018083116109f357829003601f168201915b50505050508152602001600282018054610a29906118c6565b80601f0160208091040260200160405190810160405280929190818152602001828054610a55906118c6565b8015610aa25780601f10610a7757610100808354040283529160200191610aa2565b820191906000526020600020905b815481529060010190602001808311610a8557829003601f168201915b50505050508152602001600382015481526020016004820160009054906101000a900473ffffffffffffffffffffffffffffffffffffffff1673ffffffffffffffffffffffffffffffffffffffff1673ffffffffffffffffffffffffffffffffffffffff168152505090506000816080015190508073ffffffffffffffffffffffffffffffffffffffff166108fc349081150290604051600060405180830381858888f19350505050158015610b5c573d6000803e3d6000fd5b503482606001818152508260600181815250508160026000858152602001908152602001600020600082015181600001556020820151816001019080519060200190610ba99291906112c4565b506040820151816002019080519060200190610bc69291906112c4565b506060820151816003015560808201518160040160006101000a81548173ffffffffffffffffffffffffffffffffffffffff021916908373ffffffffffffffffffffffffffffffffffffffff1602179055509050507f1be5317bca8d3f70dc1efe89958be71bff36cdca33fc00a6423e25eb2f1d492f838360200151846040015185606001518660800151604051610c629594939291906117be565b60405180910390a1505050565b60015481565b6000815111610c8357600080fd5b6000825111610c9157600080fd5b600073ffffffffffffffffffffffffffffffffffffffff163373ffffffffffffffffffffffffffffffffffffffff1603610cca57600080fd5b60016000815480929190610cdd90611926565b91905055506040518060a001604052806001548152602001838152602001828152602001600081526020013373ffffffffffffffffffffffffffffffffffffffff16815250600260006001548152602001908152602001600020600082015181600001556020820151816001019080519060200190610d5d9291906112c4565b506040820151816002019080519060200190610d7a9291906112c4565b506060820151816003015560808201518160040160006101000a81548173ffffffffffffffffffffffffffffffffffffffff021916908373ffffffffffffffffffffffffffffffffffffffff1602179055509050507f4e9282870bd43ab9663c42138a9cbcae10c0cbfba13ecd489c39c4a44642865b6001548383600033604051610e099594939291906119b3565b60405180910390a15050565b6000855111610e2357600080fd5b60008411610e3057600080fd5b6000835111610e3e57600080fd5b6000825111610e4c57600080fd5b6000815111610e5a57600080fd5b600073ffffffffffffffffffffffffffffffffffffffff163373ffffffffffffffffffffffffffffffffffffffff1603610e9357600080fd5b60036000815480929190610ea690611926565b919050555060405180610100016040528060035481526020018681526020018581526020018481526020018381526020018281526020014281526020013373ffffffffffffffffffffffffffffffffffffffff16815250600460006003548152602001908152602001600020600082015181600001556020820151816001019080519060200190610f389291906112c4565b50604082015181600201556060820151816003019080519060200190610f5f9291906112c4565b506080820151816004019080519060200190610f7c9291906112c4565b5060a0820151816005019080519060200190610f999291906112c4565b5060c0820151816006015560e08201518160070160006101000a81548173ffffffffffffffffffffffffffffffffffffffff021916908373ffffffffffffffffffffffffffffffffffffffff1602179055509050507f6e95bbaa37a5fdec42a312e049dea2fe6160ebe659214d3409b4f91f164c2f526003548686868686423360405161102d9897969594939291906114e9565b60405180910390a15050505050565b6004602052806000526040600020600091509050806000015490806001018054611065906118c6565b80601f0160208091040260200160405190810160405280929190818152602001828054611091906118c6565b80156110de5780601f106110b3576101008083540402835291602001916110de565b820191906000526020600020905b8154815290600101906020018083116110c157829003601f168201915b5050505050908060020154908060030180546110f9906118c6565b80601f0160208091040260200160405190810160405280929190818152602001828054611125906118c6565b80156111725780601f1061114757610100808354040283529160200191611172565b820191906000526020600020905b81548152906001019060200180831161115557829003601f168201915b505050505090806004018054611187906118c6565b80601f01602080910402602001604051908101604052809291908181526020018280546111b3906118c6565b80156112005780601f106111d557610100808354040283529160200191611200565b820191906000526020600020905b8154815290600101906020018083116111e357829003601f168201915b505050505090806005018054611215906118c6565b80601f0160208091040260200160405190810160405280929190818152602001828054611241906118c6565b801561128e5780601f106112635761010080835404028352916020019161128e565b820191906000526020600020905b81548152906001019060200180831161127157829003601f168201915b5050505050908060060154908060070160009054906101000a900473ffffffffffffffffffffffffffffffffffffffff16905088565b8280546112d0906118c6565b90600052602060002090601f0160209004810192826112f25760008555611339565b82601f1061130b57805160ff1916838001178555611339565b82800160010185558215611339579182015b8281111561133857825182559160200191906001019061131d565b5b509050611346919061134a565b5090565b5b8082111561136357600081600090555060010161134b565b5090565b600081519050919050565b600082825260208201905092915050565b60005b838110156113a1578082015181840152602081019050611386565b838111156113b0576000848401525b50505050565b6000601f19601f8301169050919050565b60006113d282611367565b6113dc8185611372565b93506113ec818560208601611383565b6113f5816113b6565b840191505092915050565b6000602082019050818103600083015261141a81846113c7565b905092915050565b6000604051905090565b600080fd5b600080fd5b6000819050919050565b61144981611436565b811461145457600080fd5b50565b60008135905061146681611440565b92915050565b6000602082840312156114825761148161142c565b5b600061149084828501611457565b91505092915050565b6114a281611436565b82525050565b600073ffffffffffffffffffffffffffffffffffffffff82169050919050565b60006114d3826114a8565b9050919050565b6114e3816114c8565b82525050565b6000610100820190506114ff600083018b611499565b8181036020830152611511818a6113c7565b90506115206040830189611499565b818103606083015261153281886113c7565b9050818103608083015261154681876113c7565b905081810360a083015261155a81866113c7565b905061156960c0830185611499565b61157660e08301846114da565b9998505050505050505050565b60006020820190506115986000830184611499565b92915050565b600080fd5b600080fd5b7f4e487b7100000000000000000000000000000000000000000000000000000000600052604160045260246000fd5b6115e0826113b6565b810181811067ffffffffffffffff821117156115ff576115fe6115a8565b5b80604052505050565b6000611612611422565b905061161e82826115d7565b919050565b600067ffffffffffffffff82111561163e5761163d6115a8565b5b611647826113b6565b9050602081019050919050565b82818337600083830152505050565b600061167661167184611623565b611608565b905082815260208101848484011115611692576116916115a3565b5b61169d848285611654565b509392505050565b600082601f8301126116ba576116b961159e565b5b81356116ca848260208601611663565b91505092915050565b600080600080600060a086880312156116ef576116ee61142c565b5b600086013567ffffffffffffffff81111561170d5761170c611431565b5b611719888289016116a5565b955050602061172a88828901611457565b945050604086013567ffffffffffffffff81111561174b5761174a611431565b5b611757888289016116a5565b935050606086013567ffffffffffffffff81111561177857611777611431565b5b611784888289016116a5565b925050608086013567ffffffffffffffff8111156117a5576117a4611431565b5b6117b1888289016116a5565b9150509295509295909350565b600060a0820190506117d36000830188611499565b81810360208301526117e581876113c7565b905081810360408301526117f981866113c7565b90506118086060830185611499565b61181560808301846114da565b9695505050505050565b600080604083850312156118365761183561142c565b5b600083013567ffffffffffffffff81111561185457611853611431565b5b611860858286016116a5565b925050602083013567ffffffffffffffff81111561188157611880611431565b5b61188d858286016116a5565b9150509250929050565b7f4e487b7100000000000000000000000000000000000000000000000000000000600052602260045260246000fd5b600060028204905060018216806118de57607f821691505b6020821081036118f1576118f0611897565b5b50919050565b7f4e487b7100000000000000000000000000000000000000000000000000000000600052601160045260246000fd5b600061193182611436565b91507fffffffffffffffffffffffffffffffffffffffffffffffffffffffffffffffff8203611963576119626118f7565b5b600182019050919050565b6000819050919050565b6000819050919050565b600061199d6119986119938461196e565b611978565b611436565b9050919050565b6119ad81611982565b82525050565b600060a0820190506119c86000830188611499565b81810360208301526119da81876113c7565b905081810360408301526119ee81866113c7565b90506119fd60608301856119a4565b611a0a60808301846114da565b969550505050505056fea26469706673582212201558622e3342a236f495c1b41b206908234fcfbd2dbfc162849937dd4867a3a164736f6c634300080d0033",
  "immutableReferences": {},
  "source": "// SPDX-License-Identifier: MIT\r\n\r\npragma solidity ^0.8.13;\r\n\r\ncontract Decentragram {\r\n    string public name = \"Decentragram \";\r\n\r\n    // store Images and files\r\n    \r\n    uint256 public imageCount = 0;\r\n    mapping(uint256 => Image) public images;\r\n\r\n    uint256 public fileCount=0;\r\n    mapping(uint256 => File) public files;\r\n\r\n\r\n    uint256 public postCount = 0;\r\n    mapping(uint256 => Post) public posts;\r\n\r\n\r\n\r\n    //values stored in \"Images\" like defining tables and its columns\r\n\r\n\r\n\r\n    // code for storing images\r\n    struct Post{\r\n        uint postId;\r\n        string posthash;\r\n        uint postSize;\r\n        string postName;\r\n        string postType;\r\n        string postDescription;\r\n        uint postuploadTime;\r\n        address payable postuploader;\r\n    }\r\n\r\n    event PostUploaded(uint postId, string posthash, uint postSize, string postName, string postType, string postDescription, uint postuploadTime, address payable postuploader);\r\n\r\n    function uploadPost(\r\n        string memory _posthash,\r\n        uint _postSize,\r\n        string memory _postName,\r\n        string memory _postType,\r\n        string memory _postDescription\r\n    ) public {\r\n       // file hash exists\r\n        require(bytes(_posthash).length > 0);\r\n\r\n        // file size is greater than 0\r\n        require(_postSize > 0);\r\n\r\n        // file name is not empty\r\n        require(bytes(_postName).length > 0);\r\n\r\n        // file type is not empty\r\n        require(bytes(_postType).length > 0);\r\n\r\n        // file description is not empty\r\n        require(bytes(_postDescription).length > 0);\r\n\r\n        // uploader is not empty\r\n        require(payable(msg.sender)!= address(0));\r\n\r\n\r\n        postCount++;\r\n        posts[postCount] = Post(postCount, _posthash, _postSize, _postName, _postType, _postDescription, block.timestamp, payable(msg.sender));\r\n\r\n        emit PostUploaded(postCount, _posthash, _postSize, _postName, _postType, _postDescription, block.timestamp, payable(msg.sender));\r\n\r\n      \r\n    }\r\n\r\n    // code for file upload\r\n    struct File{\r\n        uint fileId;\r\n        string filehash;\r\n        uint fileSize;\r\n        string fileName;\r\n        string fileType;\r\n        string fileDescription;\r\n        uint uploadTime;\r\n        address payable uploader;\r\n\r\n    }\r\n\r\n    event FileUploaded(uint fileId, string filehash, uint fileSize, string fileName, string fileType, string fileDescription, uint uploadTime, address payable uploader);\r\n\r\n    \r\n    function uploadFile(\r\n        string memory _filehash,\r\n        uint _fileSize,\r\n        string memory _fileName,\r\n        string memory _fileType,\r\n        string memory _fileDescription\r\n        \r\n\r\n    ) public payable {\r\n        // file hash exists\r\n        require(bytes(_filehash).length > 0);\r\n\r\n        // file size is greater than 0\r\n        require(_fileSize > 0);\r\n\r\n        // file name is not empty\r\n        require(bytes(_fileName).length > 0);\r\n\r\n        // file type is not empty\r\n        require(bytes(_fileType).length > 0);\r\n\r\n        // file description is not empty\r\n        require(bytes(_fileDescription).length > 0);\r\n\r\n        // uploader is not empty\r\n        require(payable(msg.sender)!= address(0));\r\n\r\n\r\n        fileCount++;\r\n        files[fileCount] = File(fileCount, _filehash, _fileSize, _fileName, _fileType, _fileDescription, block.timestamp, payable(msg.sender));\r\n\r\n        emit FileUploaded(fileCount, _filehash, _fileSize, _fileName, _fileType, _fileDescription, block.timestamp, payable(msg.sender));\r\n\r\n    }\r\n\r\n\r\n    // code for image upload\r\n\r\n    struct Image {\r\n        uint256 id;\r\n        string hash;\r\n        string description;\r\n        uint256 tipAmount;\r\n        address payable author;\r\n\r\n\r\n    }\r\n\r\n    event ImageCreate(\r\n        uint256 id,\r\n        string hash,\r\n        string description,\r\n       \r\n        uint256 tipAmount,\r\n        address payable author\r\n\r\n    );\r\n\r\n    event ImageTipped(\r\n        uint256 id,\r\n        string hash,\r\n        string description,\r\n        uint256 tipAmount,\r\n        address payable author\r\n\r\n    );\r\n\r\n\r\n\r\n    // create Images\r\n    function uploadImage(\r\n        string memory _imgHash,\r\n        string memory _description\r\n                \r\n    ) public payable {\r\n        // Image description exist while uploading\r\n        require(bytes(_description).length > 0);\r\n\r\n        // Image hash exist while uploading\r\n        require(bytes(_imgHash).length > 0);\r\n\r\n        // uploader address exist\r\n        require(payable(msg.sender) != address(0x0));\r\n\r\n        // incremnet image id\r\n        imageCount++;\r\n\r\n        // Add image to contract\r\n        images[imageCount] = Image(\r\n            imageCount,\r\n            _imgHash,\r\n            _description,\r\n            0,\r\n            payable(msg.sender)\r\n        );\r\n\r\n        // Trigger an event\r\n        emit ImageCreate(\r\n            imageCount,\r\n            _imgHash,\r\n            _description,\r\n          \r\n            0,\r\n            payable(msg.sender)\r\n        );\r\n    }\r\n\r\n    // Tip Images\r\n\r\n    function tipImageOwner(uint256 _id) public payable {\r\n        // Image id exist\r\n        require(_id > 0 && _id <= imageCount);\r\n        // Fetch the image\r\n        Image memory _image = images[_id];\r\n        // Fetch the author of the image\r\n        address payable _author = _image.author;\r\n        // pay the auther by sending ether\r\n        payable(_author).transfer(msg.value);\r\n        // increment the tip amount\r\n        _image.tipAmount = _image.tipAmount = msg.value;\r\n        // update the image\r\n        images[_id] = _image;\r\n        // Trigger an event\r\n        emit ImageTipped(\r\n            _id,\r\n            _image.hash,\r\n            _image.description,\r\n            _image.tipAmount,\r\n            _image.author\r\n        );\r\n    }\r\n\r\n\r\n\r\n\r\n    \r\n    // function comment(uint256 _id, string memory _comment2) public payable {\r\n      \r\n    //     require(payable(msg.sender) != address(0x0));\r\n\r\n    //     Image memory _image = images[_id];\r\n\r\n    //     _image.comment=_image.comment=  _comment2;\r\n\r\n\r\n    //    images[_id] = _image;\r\n    //     // Trigger an event\r\n    //     emit ImageTipped(\r\n    //         _id,\r\n    //         _image.hash,\r\n    //         _image.description,\r\n    //         _image.comment,\r\n    //         _image.tipAmount,\r\n    //         _image.author\r\n    //     );\r\n    // }\r\n\r\n}\r\n",
  "sourcePath": "C:\\Users\\ACER\\Desktop\\Final year project\\contracts\\Decentragram.sol",
  "compiler": {
    "name": "solc",
    "version": "0.8.13+commit.abaa5c0e.Emscripten.clang"
  },
  "schemaVersion": "3.4.7",
  "updatedAt": "2022-09-07T16:58:05.656Z",
  "networkType": "ethereum",
  "devdoc": {
    "kind": "dev",
    "methods": {},
    "version": 1
  },
  "userdoc": {
    "kind": "user",
    "methods": {},
    "version": 1
  }
}