{
  "contractName": "Decentragram",
  "abi": [
    {
      "anonymous": false,
      "inputs": [
        {
          "indexed": false,
          "internalType": "uint256",
          "name": "fileId",
          "type": "uint256"
        },
        {
          "indexed": false,
          "internalType": "string",
          "name": "filehash",
          "type": "string"
        },
        {
          "indexed": false,
          "internalType": "uint256",
          "name": "fileSize",
          "type": "uint256"
        },
        {
          "indexed": false,
          "internalType": "string",
          "name": "fileName",
          "type": "string"
        },
        {
          "indexed": false,
          "internalType": "string",
          "name": "fileType",
          "type": "string"
        },
        {
          "indexed": false,
          "internalType": "string",
          "name": "fileDescription",
          "type": "string"
        },
        {
          "indexed": false,
          "internalType": "uint256",
          "name": "uploadTime",
          "type": "uint256"
        },
        {
          "indexed": false,
          "internalType": "address payable",
          "name": "uploader",
          "type": "address"
        }
      ],
      "name": "FileUploaded",
      "type": "event"
    },
    {
      "anonymous": false,
      "inputs": [
        {
          "indexed": false,
          "internalType": "uint256",
          "name": "id",
          "type": "uint256"
        },
        {
          "indexed": false,
          "internalType": "string",
          "name": "hash",
          "type": "string"
        },
        {
          "indexed": false,
          "internalType": "string",
          "name": "description",
          "type": "string"
        },
        {
          "indexed": false,
          "internalType": "uint256",
          "name": "tipAmount",
          "type": "uint256"
        },
        {
          "indexed": false,
          "internalType": "address payable",
          "name": "author",
          "type": "address"
        }
      ],
      "name": "ImageCreate",
      "type": "event"
    },
    {
      "anonymous": false,
      "inputs": [
        {
          "indexed": false,
          "internalType": "uint256",
          "name": "id",
          "type": "uint256"
        },
        {
          "indexed": false,
          "internalType": "string",
          "name": "hash",
          "type": "string"
        },
        {
          "indexed": false,
          "internalType": "string",
          "name": "description",
          "type": "string"
        },
        {
          "indexed": false,
          "internalType": "uint256",
          "name": "tipAmount",
          "type": "uint256"
        },
        {
          "indexed": false,
          "internalType": "address payable",
          "name": "author",
          "type": "address"
        }
      ],
      "name": "ImageTipped",
      "type": "event"
    },
    {
      "inputs": [],
      "name": "fileCount",
      "outputs": [
        {
          "internalType": "uint256",
          "name": "",
          "type": "uint256"
        }
      ],
      "stateMutability": "view",
      "type": "function",
      "constant": true
    },
    {
      "inputs": [
        {
          "internalType": "uint256",
          "name": "",
          "type": "uint256"
        }
      ],
      "name": "files",
      "outputs": [
        {
          "internalType": "uint256",
          "name": "fileId",
          "type": "uint256"
        },
        {
          "internalType": "string",
          "name": "filehash",
          "type": "string"
        },
        {
          "internalType": "uint256",
          "name": "fileSize",
          "type": "uint256"
        },
        {
          "internalType": "string",
          "name": "fileName",
          "type": "string"
        },
        {
          "internalType": "string",
          "name": "fileType",
          "type": "string"
        },
        {
          "internalType": "string",
          "name": "fileDescription",
          "type": "string"
        },
        {
          "internalType": "uint256",
          "name": "uploadTime",
          "type": "uint256"
        },
        {
          "internalType": "address payable",
          "name": "uploader",
          "type": "address"
        }
      ],
      "stateMutability": "view",
      "type": "function",
      "constant": true
    },
    {
      "inputs": [],
      "name": "imageCount",
      "outputs": [
        {
          "internalType": "uint256",
          "name": "",
          "type": "uint256"
        }
      ],
      "stateMutability": "view",
      "type": "function",
      "constant": true
    },
    {
      "inputs": [
        {
          "internalType": "uint256",
          "name": "",
          "type": "uint256"
        }
      ],
      "name": "images",
      "outputs": [
        {
          "internalType": "uint256",
          "name": "id",
          "type": "uint256"
        },
        {
          "internalType": "string",
          "name": "hash",
          "type": "string"
        },
        {
          "internalType": "string",
          "name": "description",
          "type": "string"
        },
        {
          "internalType": "uint256",
          "name": "tipAmount",
          "type": "uint256"
        },
        {
          "internalType": "address payable",
          "name": "author",
          "type": "address"
        }
      ],
      "stateMutability": "view",
      "type": "function",
      "constant": true
    },
    {
      "inputs": [],
      "name": "name",
      "outputs": [
        {
          "internalType": "string",
          "name": "",
          "type": "string"
        }
      ],
      "stateMutability": "view",
      "type": "function",
      "constant": true
    },
    {
      "inputs": [
        {
          "internalType": "string",
          "name": "_filehash",
          "type": "string"
        },
        {
          "internalType": "uint256",
          "name": "_fileSize",
          "type": "uint256"
        },
        {
          "internalType": "string",
          "name": "_fileName",
          "type": "string"
        },
        {
          "internalType": "string",
          "name": "_fileType",
          "type": "string"
        },
        {
          "internalType": "string",
          "name": "_fileDescription",
          "type": "string"
        }
      ],
      "name": "uploadFile",
      "outputs": [],
      "stateMutability": "payable",
      "type": "function",
      "payable": true
    },
    {
      "inputs": [
        {
          "internalType": "string",
          "name": "_imgHash",
          "type": "string"
        },
        {
          "internalType": "string",
          "name": "_description",
          "type": "string"
        }
      ],
      "name": "uploadImage",
      "outputs": [],
      "stateMutability": "payable",
      "type": "function",
      "payable": true
    },
    {
      "inputs": [
        {
          "internalType": "uint256",
          "name": "_id",
          "type": "uint256"
        }
      ],
      "name": "tipImageOwner",
      "outputs": [],
      "stateMutability": "payable",
      "type": "function",
      "payable": true
    }
  ],
  "bytecode": "0x60806040526040518060400160405280600d81526020017f446563656e7472616772616d2000000000000000000000000000000000000000815250600090805190602001906200005192919062000070565b50600060015560006003553480156200006957600080fd5b5062000184565b8280546200007e906200014f565b90600052602060002090601f016020900481019282620000a25760008555620000ee565b82601f10620000bd57805160ff1916838001178555620000ee565b82800160010185558215620000ee579182015b82811115620000ed578251825591602001919060010190620000d0565b5b509050620000fd919062000101565b5090565b5b808211156200011c57600081600090555060010162000102565b5090565b7f4e487b7100000000000000000000000000000000000000000000000000000000600052602260045260246000fd5b600060028204905060018216806200016857607f821691505b6020821081036200017e576200017d62000120565b5b50919050565b6114dc80620001946000396000f3fe60806040526004361061007b5760003560e01c806392053b631161004e57806392053b6314610133578063a91b83141461015e578063e82d9d331461017a578063f4c714b4146101965761007b565b806306fdde031461008057806343953519146100ab57806384856482146100d65780638567ade814610117575b600080fd5b34801561008c57600080fd5b506100956101da565b6040516100a29190610e92565b60405180910390f35b3480156100b757600080fd5b506100c0610268565b6040516100cd9190610ecd565b60405180910390f35b3480156100e257600080fd5b506100fd60048036038101906100f89190610f28565b61026e565b60405161010e959493929190610f96565b60405180910390f35b610131600480360381019061012c9190610f28565b6103d4565b005b34801561013f57600080fd5b50610148610701565b6040516101559190610ecd565b60405180910390f35b6101786004803603810190610173919061112c565b610707565b005b610194600480360381019061018f91906111a4565b6108a7565b005b3480156101a257600080fd5b506101bd60048036038101906101b89190610f28565b610ace565b6040516101d198979695949392919061128f565b60405180910390f35b600080546101e790611358565b80601f016020809104026020016040519081016040528092919081815260200182805461021390611358565b80156102605780601f1061023557610100808354040283529160200191610260565b820191906000526020600020905b81548152906001019060200180831161024357829003601f168201915b505050505081565b60035481565b600260205280600052604060002060009150905080600001549080600101805461029790611358565b80601f01602080910402602001604051908101604052809291908181526020018280546102c390611358565b80156103105780601f106102e557610100808354040283529160200191610310565b820191906000526020600020905b8154815290600101906020018083116102f357829003601f168201915b50505050509080600201805461032590611358565b80601f016020809104026020016040519081016040528092919081815260200182805461035190611358565b801561039e5780601f106103735761010080835404028352916020019161039e565b820191906000526020600020905b81548152906001019060200180831161038157829003601f168201915b5050505050908060030154908060040160009054906101000a900473ffffffffffffffffffffffffffffffffffffffff16905085565b6000811180156103e657506001548111155b6103ef57600080fd5b6000600260008381526020019081526020016000206040518060a00160405290816000820154815260200160018201805461042990611358565b80601f016020809104026020016040519081016040528092919081815260200182805461045590611358565b80156104a25780601f10610477576101008083540402835291602001916104a2565b820191906000526020600020905b81548152906001019060200180831161048557829003601f168201915b505050505081526020016002820180546104bb90611358565b80601f01602080910402602001604051908101604052809291908181526020018280546104e790611358565b80156105345780601f1061050957610100808354040283529160200191610534565b820191906000526020600020905b81548152906001019060200180831161051757829003601f168201915b50505050508152602001600382015481526020016004820160009054906101000a900473ffffffffffffffffffffffffffffffffffffffff1673ffffffffffffffffffffffffffffffffffffffff1673ffffffffffffffffffffffffffffffffffffffff168152505090506000816080015190508073ffffffffffffffffffffffffffffffffffffffff166108fc349081150290604051600060405180830381858888f193505050501580156105ee573d6000803e3d6000fd5b50348260600181815250826060018181525050816002600085815260200190815260200160002060008201518160000155602082015181600101908051906020019061063b929190610d56565b506040820151816002019080519060200190610658929190610d56565b506060820151816003015560808201518160040160006101000a81548173ffffffffffffffffffffffffffffffffffffffff021916908373ffffffffffffffffffffffffffffffffffffffff1602179055509050507f1be5317bca8d3f70dc1efe89958be71bff36cdca33fc00a6423e25eb2f1d492f8383602001518460400151856060015186608001516040516106f4959493929190610f96565b60405180910390a1505050565b60015481565b600081511161071557600080fd5b600082511161072357600080fd5b600073ffffffffffffffffffffffffffffffffffffffff163373ffffffffffffffffffffffffffffffffffffffff160361075c57600080fd5b6001600081548092919061076f906113b8565b91905055506040518060a001604052806001548152602001838152602001828152602001600081526020013373ffffffffffffffffffffffffffffffffffffffff168152506002600060015481526020019081526020016000206000820151816000015560208201518160010190805190602001906107ef929190610d56565b50604082015181600201908051906020019061080c929190610d56565b506060820151816003015560808201518160040160006101000a81548173ffffffffffffffffffffffffffffffffffffffff021916908373ffffffffffffffffffffffffffffffffffffffff1602179055509050507f4e9282870bd43ab9663c42138a9cbcae10c0cbfba13ecd489c39c4a44642865b600154838360003360405161089b959493929190611445565b60405180910390a15050565b60008551116108b557600080fd5b600084116108c257600080fd5b60008351116108d057600080fd5b60008251116108de57600080fd5b60008151116108ec57600080fd5b600073ffffffffffffffffffffffffffffffffffffffff163373ffffffffffffffffffffffffffffffffffffffff160361092557600080fd5b60036000815480929190610938906113b8565b919050555060405180610100016040528060035481526020018681526020018581526020018481526020018381526020018281526020014281526020013373ffffffffffffffffffffffffffffffffffffffff168152506004600060035481526020019081526020016000206000820151816000015560208201518160010190805190602001906109ca929190610d56565b506040820151816002015560608201518160030190805190602001906109f1929190610d56565b506080820151816004019080519060200190610a0e929190610d56565b5060a0820151816005019080519060200190610a2b929190610d56565b5060c0820151816006015560e08201518160070160006101000a81548173ffffffffffffffffffffffffffffffffffffffff021916908373ffffffffffffffffffffffffffffffffffffffff1602179055509050507f6e95bbaa37a5fdec42a312e049dea2fe6160ebe659214d3409b4f91f164c2f5260035486868686864233604051610abf98979695949392919061128f565b60405180910390a15050505050565b6004602052806000526040600020600091509050806000015490806001018054610af790611358565b80601f0160208091040260200160405190810160405280929190818152602001828054610b2390611358565b8015610b705780601f10610b4557610100808354040283529160200191610b70565b820191906000526020600020905b815481529060010190602001808311610b5357829003601f168201915b505050505090806002015490806003018054610b8b90611358565b80601f0160208091040260200160405190810160405280929190818152602001828054610bb790611358565b8015610c045780601f10610bd957610100808354040283529160200191610c04565b820191906000526020600020905b815481529060010190602001808311610be757829003601f168201915b505050505090806004018054610c1990611358565b80601f0160208091040260200160405190810160405280929190818152602001828054610c4590611358565b8015610c925780601f10610c6757610100808354040283529160200191610c92565b820191906000526020600020905b815481529060010190602001808311610c7557829003601f168201915b505050505090806005018054610ca790611358565b80601f0160208091040260200160405190810160405280929190818152602001828054610cd390611358565b8015610d205780601f10610cf557610100808354040283529160200191610d20565b820191906000526020600020905b815481529060010190602001808311610d0357829003601f168201915b5050505050908060060154908060070160009054906101000a900473ffffffffffffffffffffffffffffffffffffffff16905088565b828054610d6290611358565b90600052602060002090601f016020900481019282610d845760008555610dcb565b82601f10610d9d57805160ff1916838001178555610dcb565b82800160010185558215610dcb579182015b82811115610dca578251825591602001919060010190610daf565b5b509050610dd89190610ddc565b5090565b5b80821115610df5576000816000905550600101610ddd565b5090565b600081519050919050565b600082825260208201905092915050565b60005b83811015610e33578082015181840152602081019050610e18565b83811115610e42576000848401525b50505050565b6000601f19601f8301169050919050565b6000610e6482610df9565b610e6e8185610e04565b9350610e7e818560208601610e15565b610e8781610e48565b840191505092915050565b60006020820190508181036000830152610eac8184610e59565b905092915050565b6000819050919050565b610ec781610eb4565b82525050565b6000602082019050610ee26000830184610ebe565b92915050565b6000604051905090565b600080fd5b600080fd5b610f0581610eb4565b8114610f1057600080fd5b50565b600081359050610f2281610efc565b92915050565b600060208284031215610f3e57610f3d610ef2565b5b6000610f4c84828501610f13565b91505092915050565b600073ffffffffffffffffffffffffffffffffffffffff82169050919050565b6000610f8082610f55565b9050919050565b610f9081610f75565b82525050565b600060a082019050610fab6000830188610ebe565b8181036020830152610fbd8187610e59565b90508181036040830152610fd18186610e59565b9050610fe06060830185610ebe565b610fed6080830184610f87565b9695505050505050565b600080fd5b600080fd5b7f4e487b7100000000000000000000000000000000000000000000000000000000600052604160045260246000fd5b61103982610e48565b810181811067ffffffffffffffff8211171561105857611057611001565b5b80604052505050565b600061106b610ee8565b90506110778282611030565b919050565b600067ffffffffffffffff82111561109757611096611001565b5b6110a082610e48565b9050602081019050919050565b82818337600083830152505050565b60006110cf6110ca8461107c565b611061565b9050828152602081018484840111156110eb576110ea610ffc565b5b6110f68482856110ad565b509392505050565b600082601f83011261111357611112610ff7565b5b81356111238482602086016110bc565b91505092915050565b6000806040838503121561114357611142610ef2565b5b600083013567ffffffffffffffff81111561116157611160610ef7565b5b61116d858286016110fe565b925050602083013567ffffffffffffffff81111561118e5761118d610ef7565b5b61119a858286016110fe565b9150509250929050565b600080600080600060a086880312156111c0576111bf610ef2565b5b600086013567ffffffffffffffff8111156111de576111dd610ef7565b5b6111ea888289016110fe565b95505060206111fb88828901610f13565b945050604086013567ffffffffffffffff81111561121c5761121b610ef7565b5b611228888289016110fe565b935050606086013567ffffffffffffffff81111561124957611248610ef7565b5b611255888289016110fe565b925050608086013567ffffffffffffffff81111561127657611275610ef7565b5b611282888289016110fe565b9150509295509295909350565b6000610100820190506112a5600083018b610ebe565b81810360208301526112b7818a610e59565b90506112c66040830189610ebe565b81810360608301526112d88188610e59565b905081810360808301526112ec8187610e59565b905081810360a08301526113008186610e59565b905061130f60c0830185610ebe565b61131c60e0830184610f87565b9998505050505050505050565b7f4e487b7100000000000000000000000000000000000000000000000000000000600052602260045260246000fd5b6000600282049050600182168061137057607f821691505b60208210810361138357611382611329565b5b50919050565b7f4e487b7100000000000000000000000000000000000000000000000000000000600052601160045260246000fd5b60006113c382610eb4565b91507fffffffffffffffffffffffffffffffffffffffffffffffffffffffffffffffff82036113f5576113f4611389565b5b600182019050919050565b6000819050919050565b6000819050919050565b600061142f61142a61142584611400565b61140a565b610eb4565b9050919050565b61143f81611414565b82525050565b600060a08201905061145a6000830188610ebe565b818103602083015261146c8187610e59565b905081810360408301526114808186610e59565b905061148f6060830185611436565b61149c6080830184610f87565b969550505050505056fea264697066735822122057584a1f3e923c87174a753e4388777a8b87fe9b51039284f64ed2a09350770f64736f6c634300080d0033",
  "immutableReferences": {},
  "source": "// SPDX-License-Identifier: MIT\r\n\r\npragma solidity ^0.8.13;\r\n\r\ncontract Decentragram {\r\n    string public name = \"Decentragram \";\r\n\r\n    // store Images and files\r\n    \r\n    uint256 public imageCount = 0;\r\n    mapping(uint256 => Image) public images;\r\n\r\n    uint256 public fileCount=0;\r\n    mapping(uint256 => File) public files;\r\n\r\n    //values stored in \"Images\" like defining tables and its columns\r\n    struct File{\r\n        uint fileId;\r\n        string filehash;\r\n        uint fileSize;\r\n        string fileName;\r\n        string fileType;\r\n        string fileDescription;\r\n        uint uploadTime;\r\n        address payable uploader;\r\n\r\n    }\r\n\r\n    event FileUploaded(uint fileId, string filehash, uint fileSize, string fileName, string fileType, string fileDescription, uint uploadTime, address payable uploader);\r\n\r\n    struct Image {\r\n        uint256 id;\r\n        string hash;\r\n        string description;\r\n        uint256 tipAmount;\r\n        address payable author;\r\n    }\r\n\r\n    event ImageCreate(\r\n        uint256 id,\r\n        string hash,\r\n        string description,\r\n        uint256 tipAmount,\r\n        address payable author\r\n    );\r\n\r\n    event ImageTipped(\r\n        uint256 id,\r\n        string hash,\r\n        string description,\r\n        uint256 tipAmount,\r\n        address payable author\r\n    );\r\n\r\n\r\n    function uploadFile(\r\n        string memory _filehash,\r\n        uint _fileSize,\r\n        string memory _fileName,\r\n        string memory _fileType,\r\n        string memory _fileDescription\r\n        \r\n\r\n    ) public payable {\r\n        // file hash exists\r\n        require(bytes(_filehash).length > 0);\r\n\r\n        // file size is greater than 0\r\n        require(_fileSize > 0);\r\n\r\n        // file name is not empty\r\n        require(bytes(_fileName).length > 0);\r\n\r\n        // file type is not empty\r\n        require(bytes(_fileType).length > 0);\r\n\r\n        // file description is not empty\r\n        require(bytes(_fileDescription).length > 0);\r\n\r\n        // uploader is not empty\r\n        require(payable(msg.sender)!= address(0));\r\n\r\n\r\n        fileCount++;\r\n        files[fileCount] = File(fileCount, _filehash, _fileSize, _fileName, _fileType, _fileDescription, block.timestamp, payable(msg.sender));\r\n\r\n        emit FileUploaded(fileCount, _filehash, _fileSize, _fileName, _fileType, _fileDescription, block.timestamp, payable(msg.sender));\r\n\r\n    }\r\n\r\n\r\n    // create Images\r\n    function uploadImage(\r\n        string memory _imgHash,\r\n        string memory _description\r\n        \r\n    ) public payable {\r\n        // Image description exist while uploading\r\n        require(bytes(_description).length > 0);\r\n\r\n        // Image hash exist while uploading\r\n        require(bytes(_imgHash).length > 0);\r\n\r\n        // uploader address exist\r\n        require(payable(msg.sender) != address(0x0));\r\n\r\n        // incremnet image id\r\n        imageCount++;\r\n\r\n        // Add image to contract\r\n        images[imageCount] = Image(\r\n            imageCount,\r\n            _imgHash,\r\n            _description,\r\n            0,\r\n            payable(msg.sender)\r\n        );\r\n\r\n        // Trigger an event\r\n        emit ImageCreate(\r\n            imageCount,\r\n            _imgHash,\r\n            _description,\r\n            0,\r\n            payable(msg.sender)\r\n        );\r\n    }\r\n\r\n    // Tip Images\r\n\r\n    function tipImageOwner(uint256 _id) public payable {\r\n        // Image id exist\r\n        require(_id > 0 && _id <= imageCount);\r\n        // Fetch the image\r\n        Image memory _image = images[_id];\r\n        // Fetch the author of the image\r\n        address payable _author = _image.author;\r\n        // pay the auther by sending ether\r\n        payable(_author).transfer(msg.value);\r\n        // increment the tip amount\r\n        _image.tipAmount = _image.tipAmount = msg.value;\r\n        // update the image\r\n        images[_id] = _image;\r\n        // Trigger an event\r\n        emit ImageTipped(\r\n            _id,\r\n            _image.hash,\r\n            _image.description,\r\n            _image.tipAmount,\r\n            _image.author\r\n        );\r\n    }\r\n}\r\n",
  "sourcePath": "C:\\Users\\ACER\\Desktop\\Final year project\\contracts\\Decentragram.sol",
  "compiler": {
    "name": "solc",
    "version": "0.8.13+commit.abaa5c0e.Emscripten.clang"
  },
  "schemaVersion": "3.4.7",
  "updatedAt": "2022-08-16T01:15:37.904Z",
  "networkType": "ethereum",
  "devdoc": {
    "kind": "dev",
    "methods": {},
    "version": 1
  },
  "userdoc": {
    "kind": "user",
    "methods": {},
    "version": 1
  }
}